{
  "_format": "hh-sol-artifact-1",
  "contractName": "QuickswapSyrupPools",
  "sourceName": "contracts/QuickswapSyrupPools.sol",
  "abi": [
    {
      "inputs": [
        {
          "internalType": "address",
          "name": "_owner",
          "type": "address"
        }
      ],
      "stateMutability": "nonpayable",
      "type": "constructor"
    },
    {
      "anonymous": false,
      "inputs": [
        {
          "indexed": true,
          "internalType": "address",
          "name": "previousOwner",
          "type": "address"
        },
        {
          "indexed": true,
          "internalType": "address",
          "name": "newOwner",
          "type": "address"
        }
      ],
      "name": "OwnershipTransferred",
      "type": "event"
    },
    {
      "anonymous": false,
      "inputs": [
        {
          "indexed": true,
          "internalType": "address",
          "name": "_rewardToken",
          "type": "address"
        },
        {
          "indexed": false,
          "internalType": "uint256",
          "name": "_reward",
          "type": "uint256"
        },
        {
          "indexed": false,
          "internalType": "uint256",
          "name": "_periodFinish",
          "type": "uint256"
        }
      ],
      "name": "RewardAdded",
      "type": "event"
    },
    {
      "anonymous": false,
      "inputs": [
        {
          "indexed": true,
          "internalType": "address",
          "name": "_rewardToken",
          "type": "address"
        },
        {
          "indexed": true,
          "internalType": "address",
          "name": "_staker",
          "type": "address"
        },
        {
          "indexed": false,
          "internalType": "uint256",
          "name": "_reward",
          "type": "uint256"
        }
      ],
      "name": "RewardPaid",
      "type": "event"
    },
    {
      "anonymous": false,
      "inputs": [
        {
          "indexed": true,
          "internalType": "address",
          "name": "_rewardToken",
          "type": "address"
        },
        {
          "indexed": true,
          "internalType": "address",
          "name": "_staker",
          "type": "address"
        },
        {
          "indexed": false,
          "internalType": "uint256",
          "name": "_amount",
          "type": "uint256"
        }
      ],
      "name": "Staked",
      "type": "event"
    },
    {
      "anonymous": false,
      "inputs": [
        {
          "indexed": true,
          "internalType": "address",
          "name": "_rewardToken",
          "type": "address"
        },
        {
          "indexed": true,
          "internalType": "address",
          "name": "_staker",
          "type": "address"
        },
        {
          "indexed": false,
          "internalType": "uint256",
          "name": "_amount",
          "type": "uint256"
        }
      ],
      "name": "Withdrawn",
      "type": "event"
    },
    {
      "inputs": [],
      "name": "DRAGON_LAIR",
      "outputs": [
        {
          "internalType": "contract IDragonLair",
          "name": "",
          "type": "address"
        }
      ],
      "stateMutability": "view",
      "type": "function"
    },
    {
      "inputs": [],
      "name": "QUICK",
      "outputs": [
        {
          "internalType": "address",
          "name": "",
          "type": "address"
        }
      ],
      "stateMutability": "view",
      "type": "function"
    },
    {
      "inputs": [
        {
          "internalType": "address",
          "name": "_account",
          "type": "address"
        }
      ],
      "name": "balanceOf",
      "outputs": [
        {
          "internalType": "uint256",
          "name": "",
          "type": "uint256"
        }
      ],
      "stateMutability": "view",
      "type": "function"
    },
    {
      "inputs": [
        {
          "internalType": "address",
          "name": "_rewardToken",
          "type": "address"
        },
        {
          "internalType": "address",
          "name": "_account",
          "type": "address"
        }
      ],
      "name": "balanceOf",
      "outputs": [
        {
          "internalType": "uint256",
          "name": "",
          "type": "uint256"
        }
      ],
      "stateMutability": "view",
      "type": "function"
    },
    {
      "inputs": [
        {
          "internalType": "address",
          "name": "_rewardToken",
          "type": "address"
        },
        {
          "internalType": "address",
          "name": "_account",
          "type": "address"
        }
      ],
      "name": "earned",
      "outputs": [
        {
          "internalType": "uint256",
          "name": "",
          "type": "uint256"
        }
      ],
      "stateMutability": "view",
      "type": "function"
    },
    {
      "inputs": [
        {
          "internalType": "uint256",
          "name": "_quickAmount",
          "type": "uint256"
        }
      ],
      "name": "enterDragonLair",
      "outputs": [],
      "stateMutability": "nonpayable",
      "type": "function"
    },
    {
      "inputs": [
        {
          "components": [
            {
              "internalType": "address",
              "name": "rewardToken",
              "type": "address"
            },
            {
              "internalType": "uint256",
              "name": "quickAmount",
              "type": "uint256"
            }
          ],
          "internalType": "struct QuickswapSyrupPools.QuickStakeInput[]",
          "name": "_quickStakeInput",
          "type": "tuple[]"
        }
      ],
      "name": "enterDragonLairAndStake",
      "outputs": [],
      "stateMutability": "nonpayable",
      "type": "function"
    },
    {
      "inputs": [
        {
          "components": [
            {
              "internalType": "address",
              "name": "rewardToken",
              "type": "address"
            },
            {
              "internalType": "uint256",
              "name": "amount",
              "type": "uint256"
            }
          ],
          "internalType": "struct QuickswapSyrupPools.StakeInput[]",
          "name": "_stakes",
          "type": "tuple[]"
        }
      ],
      "name": "exit",
      "outputs": [],
      "stateMutability": "nonpayable",
      "type": "function"
    },
    {
      "inputs": [
        {
          "internalType": "address[]",
          "name": "_rewardTokens",
          "type": "address[]"
        }
      ],
      "name": "exitAll",
      "outputs": [],
      "stateMutability": "nonpayable",
      "type": "function"
    },
    {
      "inputs": [
        {
          "internalType": "address[]",
          "name": "_rewardTokens",
          "type": "address[]"
        }
      ],
      "name": "exitAllAndDragonLair",
      "outputs": [],
      "stateMutability": "nonpayable",
      "type": "function"
    },
    {
      "inputs": [],
      "name": "exitAllFromAll",
      "outputs": [],
      "stateMutability": "nonpayable",
      "type": "function"
    },
    {
      "inputs": [],
      "name": "exitAllFromAllAndDragonLair",
      "outputs": [],
      "stateMutability": "nonpayable",
      "type": "function"
    },
    {
      "inputs": [
        {
          "components": [
            {
              "internalType": "address",
              "name": "rewardToken",
              "type": "address"
            },
            {
              "internalType": "uint256",
              "name": "amount",
              "type": "uint256"
            }
          ],
          "internalType": "struct QuickswapSyrupPools.StakeInput[]",
          "name": "_stakes",
          "type": "tuple[]"
        }
      ],
      "name": "exitAndDragonLair",
      "outputs": [],
      "stateMutability": "nonpayable",
      "type": "function"
    },
    {
      "inputs": [],
      "name": "getAllRewards",
      "outputs": [],
      "stateMutability": "nonpayable",
      "type": "function"
    },
    {
      "inputs": [
        {
          "internalType": "address[]",
          "name": "_rewardTokens",
          "type": "address[]"
        }
      ],
      "name": "getRewards",
      "outputs": [],
      "stateMutability": "nonpayable",
      "type": "function"
    },
    {
      "inputs": [
        {
          "internalType": "address",
          "name": "_rewardToken",
          "type": "address"
        }
      ],
      "name": "lastTimeRewardApplicable",
      "outputs": [
        {
          "internalType": "uint256",
          "name": "",
          "type": "uint256"
        }
      ],
      "stateMutability": "view",
      "type": "function"
    },
    {
      "inputs": [
        {
          "components": [
            {
              "internalType": "address",
              "name": "rewardToken",
              "type": "address"
            },
            {
              "internalType": "uint256",
              "name": "reward",
              "type": "uint256"
            },
            {
              "internalType": "uint256",
              "name": "rewardDuration",
              "type": "uint256"
            }
          ],
          "internalType": "struct QuickswapSyrupPools.RewardInfo[]",
          "name": "_rewards",
          "type": "tuple[]"
        }
      ],
      "name": "notifyRewardAmount",
      "outputs": [],
      "stateMutability": "nonpayable",
      "type": "function"
    },
    {
      "inputs": [],
      "name": "owner",
      "outputs": [
        {
          "internalType": "address",
          "name": "owner_",
          "type": "address"
        }
      ],
      "stateMutability": "view",
      "type": "function"
    },
    {
      "inputs": [
        {
          "internalType": "address",
          "name": "_rewardToken",
          "type": "address"
        }
      ],
      "name": "pool",
      "outputs": [
        {
          "components": [
            {
              "internalType": "address",
              "name": "rewardToken",
              "type": "address"
            },
            {
              "internalType": "uint256",
              "name": "periodFinish",
              "type": "uint256"
            },
            {
              "internalType": "uint256",
              "name": "totalSupply",
              "type": "uint256"
            },
            {
              "internalType": "uint256",
              "name": "rewardRate",
              "type": "uint256"
            },
            {
              "internalType": "uint256",
              "name": "rewardPerToken",
              "type": "uint256"
            }
          ],
          "internalType": "struct QuickswapSyrupPools.StakePool",
          "name": "stakePool_",
          "type": "tuple"
        }
      ],
      "stateMutability": "view",
      "type": "function"
    },
    {
      "inputs": [],
      "name": "pools",
      "outputs": [
        {
          "components": [
            {
              "internalType": "address",
              "name": "rewardToken",
              "type": "address"
            },
            {
              "internalType": "uint256",
              "name": "periodFinish",
              "type": "uint256"
            },
            {
              "internalType": "uint256",
              "name": "totalSupply",
              "type": "uint256"
            },
            {
              "internalType": "uint256",
              "name": "rewardRate",
              "type": "uint256"
            },
            {
              "internalType": "uint256",
              "name": "rewardPerToken",
              "type": "uint256"
            }
          ],
          "internalType": "struct QuickswapSyrupPools.StakePool[]",
          "name": "stakePools_",
          "type": "tuple[]"
        }
      ],
      "stateMutability": "view",
      "type": "function"
    },
    {
      "inputs": [
        {
          "internalType": "address",
          "name": "_account",
          "type": "address"
        }
      ],
      "name": "quickBalanceOf",
      "outputs": [
        {
          "internalType": "uint256",
          "name": "",
          "type": "uint256"
        }
      ],
      "stateMutability": "view",
      "type": "function"
    },
    {
      "inputs": [
        {
          "internalType": "address[]",
          "name": "_rewardTokens",
          "type": "address[]"
        }
      ],
      "name": "removeStakingPools",
      "outputs": [],
      "stateMutability": "nonpayable",
      "type": "function"
    },
    {
      "inputs": [
        {
          "internalType": "address",
          "name": "_rewardToken",
          "type": "address"
        }
      ],
      "name": "rewardPerToken",
      "outputs": [
        {
          "internalType": "uint256",
          "name": "",
          "type": "uint256"
        }
      ],
      "stateMutability": "view",
      "type": "function"
    },
    {
      "inputs": [
        {
          "components": [
            {
              "internalType": "address",
              "name": "rewardToken",
              "type": "address"
            },
            {
              "internalType": "uint256",
              "name": "amount",
              "type": "uint256"
            }
          ],
          "internalType": "struct QuickswapSyrupPools.StakeInput[]",
          "name": "_stakes",
          "type": "tuple[]"
        }
      ],
      "name": "stake",
      "outputs": [],
      "stateMutability": "nonpayable",
      "type": "function"
    },
    {
      "inputs": [
        {
          "internalType": "address",
          "name": "_rewardToken",
          "type": "address"
        },
        {
          "internalType": "address",
          "name": "_staker",
          "type": "address"
        }
      ],
      "name": "stakerPool",
      "outputs": [
        {
          "components": [
            {
              "internalType": "address",
              "name": "rewardToken",
              "type": "address"
            },
            {
              "internalType": "address",
              "name": "staker",
              "type": "address"
            },
            {
              "internalType": "uint256",
              "name": "periodFinish",
              "type": "uint256"
            },
            {
              "internalType": "uint256",
              "name": "balance",
              "type": "uint256"
            },
            {
              "internalType": "uint256",
              "name": "earned",
              "type": "uint256"
            }
          ],
          "internalType": "struct QuickswapSyrupPools.StakerPool",
          "name": "stakerPool_",
          "type": "tuple"
        }
      ],
      "stateMutability": "view",
      "type": "function"
    },
    {
      "inputs": [
        {
          "internalType": "address",
          "name": "_staker",
          "type": "address"
        }
      ],
      "name": "stakerPools",
      "outputs": [
        {
          "components": [
            {
              "internalType": "address",
              "name": "rewardToken",
              "type": "address"
            },
            {
              "internalType": "address",
              "name": "staker",
              "type": "address"
            },
            {
              "internalType": "uint256",
              "name": "periodFinish",
              "type": "uint256"
            },
            {
              "internalType": "uint256",
              "name": "balance",
              "type": "uint256"
            },
            {
              "internalType": "uint256",
              "name": "earned",
              "type": "uint256"
            }
          ],
          "internalType": "struct QuickswapSyrupPools.StakerPool[]",
          "name": "stakerPools_",
          "type": "tuple[]"
        }
      ],
      "stateMutability": "view",
      "type": "function"
    },
    {
      "inputs": [],
      "name": "totalSupply",
      "outputs": [
        {
          "internalType": "uint256",
          "name": "",
          "type": "uint256"
        }
      ],
      "stateMutability": "view",
      "type": "function"
    },
    {
      "inputs": [
        {
          "internalType": "address",
          "name": "_rewardToken",
          "type": "address"
        }
      ],
      "name": "totalSupply",
      "outputs": [
        {
          "internalType": "uint256",
          "name": "",
          "type": "uint256"
        }
      ],
      "stateMutability": "view",
      "type": "function"
    },
    {
      "inputs": [
        {
          "internalType": "address",
          "name": "_newOwner",
          "type": "address"
        }
      ],
      "name": "transferOwnership",
      "outputs": [],
      "stateMutability": "nonpayable",
      "type": "function"
    },
    {
      "inputs": [
        {
          "components": [
            {
              "internalType": "address",
              "name": "rewardToken",
              "type": "address"
            },
            {
              "internalType": "uint256",
              "name": "amount",
              "type": "uint256"
            }
          ],
          "internalType": "struct QuickswapSyrupPools.StakeInput[]",
          "name": "_stakes",
          "type": "tuple[]"
        }
      ],
      "name": "withdraw",
      "outputs": [],
      "stateMutability": "nonpayable",
      "type": "function"
    },
    {
      "inputs": [
        {
          "internalType": "address[]",
          "name": "_rewardTokens",
          "type": "address[]"
        }
      ],
      "name": "withdrawAll",
      "outputs": [],
      "stateMutability": "nonpayable",
      "type": "function"
    },
    {
      "inputs": [
        {
          "internalType": "address[]",
          "name": "_rewardTokens",
          "type": "address[]"
        }
      ],
      "name": "withdrawAllAndDragonLair",
      "outputs": [],
      "stateMutability": "nonpayable",
      "type": "function"
    },
    {
      "inputs": [],
      "name": "withdrawAllFromAll",
      "outputs": [],
      "stateMutability": "nonpayable",
      "type": "function"
    },
    {
      "inputs": [],
      "name": "withdrawAllFromAllAndDragonLair",
      "outputs": [],
      "stateMutability": "nonpayable",
      "type": "function"
    },
    {
      "inputs": [
        {
          "components": [
            {
              "internalType": "address",
              "name": "rewardToken",
              "type": "address"
            },
            {
              "internalType": "uint256",
              "name": "amount",
              "type": "uint256"
            }
          ],
          "internalType": "struct QuickswapSyrupPools.StakeInput[]",
          "name": "_stakes",
          "type": "tuple[]"
        }
      ],
      "name": "withdrawAndDragonLair",
      "outputs": [],
      "stateMutability": "nonpayable",
      "type": "function"
    }
  ],
  "bytecode": "0x60806040523480156200001157600080fd5b5060405162002f9038038062002f908339810160408190526200003491620000fb565b600080546001600160a01b0319166001600160a01b03831617905560405163095ea7b360e01b815273f28164a485b0b2c90639e47b0f377b4a438a16b16004820152600019602482015273831753dd7087cac61ab5644b308642cc1c33dc139063095ea7b390604401602060405180830381600087803b158015620000b857600080fd5b505af1158015620000cd573d6000803e3d6000fd5b505050506040513d601f19601f82011682018060405250810190620000f391906200012d565b505062000151565b6000602082840312156200010e57600080fd5b81516001600160a01b03811681146200012657600080fd5b9392505050565b6000602082840312156200014057600080fd5b815180151581146200012657600080fd5b612e2f80620001616000396000f3fe608060405234801561001057600080fd5b50600436106102115760003560e01c80636bedd933116101255780638fa89112116100ad578063e4dc2aa41161007c578063e4dc2aa414610476578063ecdbb2b3146104a3578063f1229777146104b6578063f2fde38b146104c9578063f7888aec146104dc57600080fd5b80638fa8911214610433578063aed5376d14610446578063c5c51dca1461044e578063dfdf88fa1461046357600080fd5b80637de14cb2116100f45780637de14cb2146103d6578063801c5236146103e9578063815d70ce146103fc57806383ac7d701461040f5780638da5cb5b1461042257600080fd5b80636bedd9331461038a57806370a082311461039d578063743fd132146103b05780637dca1088146103c357600080fd5b806344da9ae0116101a8578063510ccb4311610177578063510ccb4314610336578063638634ee146103495780636568a2791461035c578063661adcec1461036f57806368e55dd31461038257600080fd5b806344da9ae0146102e657806345b35f56146103065780634e7c59551461030e578063506314161461032e57600080fd5b8063188672a0116101e4578063188672a01461027d5780631ad56247146102b0578063211dc32d146102cb5780633af9a92d146102de57600080fd5b806303fd42de14610216578063156522a81461022b578063177002721461025457806318160ddd14610267575b600080fd5b610229610224366004612895565b610519565b005b61023e610239366004612926565b610535565b60405161024b9190612941565b60405180910390f35b610229610262366004612895565b61059f565b61026f6105b6565b60405190815260200161024b565b61029873831753dd7087cac61ab5644b308642cc1c33dc1381565b6040516001600160a01b03909116815260200161024b565b61029873f28164a485b0b2c90639e47b0f377b4a438a16b181565b61026f6102d936600461297f565b61062e565b6102296106ae565b6102f96102f436600461297f565b6106c6565b60405161024b91906129ed565b61022961073c565b61032161031c366004612926565b6107b5565b60405161024b91906129fb565b6102296108b2565b610229610344366004612895565b6108c7565b61026f610357366004612926565b610913565b61022961036a366004612895565b61093d565b61022961037d366004612a95565b610949565b610229610bc8565b610229610398366004612ad7565b610bd2565b61026f6103ab366004612926565b610f8e565b6102296103be366004612895565b61103d565b61026f6103d1366004612926565b611049565b6102296103e4366004612b3a565b6110e2565b6102296103f7366004612a95565b611259565b61022961040a366004612a95565b61130d565b61022961041d366004612a95565b611319565b6000546001600160a01b0316610298565b610229610441366004612895565b611325565b610229611552565b61045661155c565b60405161024b9190612b53565b610229610471366004612a95565b61162f565b61026f610484366004612926565b6001600160a01b03166000908152600160208190526040909120015490565b6102296104b1366004612a95565b61163b565b61026f6104c4366004612926565b611647565b6102296104d7366004612926565b6116ca565b61026f6104ea36600461297f565b6001600160a01b0391821660009081526001602090815260408083209390941682526004909201909152205490565b6000610525838361174f565b9050610530816117e2565b505050565b61053d61281c565b6001600160a01b038216600081815260016020818152604092839020835160a081018552948552805463ffffffff1691850191909152908101549183019190915260028101546060830152906080810161059685611647565b90529392505050565b60006105ab838361174f565b905061053081611807565b60025460009081805b828110156106275760028054600191600091849081106105e1576105e1612bc6565b60009182526020808320909101546001600160a01b031683528201929092526040019020600101546106139083612bf2565b91508061061f81612c0a565b9150506105bf565b5092915050565b6001600160a01b038083166000908152600160208181526040808420948616845260048501909152822060028101549181015492939290916106a39161069d90670de0b6b3a7640000906106979061068f906106898c611647565b9061191a565b865490611976565b90611982565b906119dd565b925050505b92915050565b60006106b86119e9565b90506106c381611807565b50565b6106ce612854565b6001600160a01b03808416600081815260016020908152604080832094871680845260048601835292819020815160a08101835294855291840192909252835463ffffffff1691830191909152805460608301529060808101610731878761062e565b905295945050505050565b3360009081526003602052604081205461075890600190612c25565b90505b336000908152600360205260409020805461079b91908390811061078157610781612bc6565b6000918252602090912001546001600160a01b0316611a88565b806107a35750565b806107ad81612c3c565b91505061075b565b6001600160a01b0381166000908152600360205260409020546060908067ffffffffffffffff8111156107ea576107ea612c53565b60405190808252806020026020018201604052801561082357816020015b610810612854565b8152602001906001900390816108085790505b50915060005b818110156108ab576001600160a01b0384166000908152600360205260409020805461087b91908390811061086057610860612bc6565b6000918252602090912001546001600160a01b0316856106c6565b83828151811061088d5761088d612bc6565b602002602001018190525080806108a390612c0a565b915050610829565b5050919050565b60006108bc6119e9565b90506106c3816117e2565b60005b81811015610530576109018383838181106108e7576108e7612bc6565b90506020020160208101906108fc9190612926565b611a88565b8061090b81612c0a565b9150506108ca565b6001600160a01b0381166000908152600160205260408120546106a890429063ffffffff16611b24565b60006105258383611b3a565b600073f28164a485b0b2c90639e47b0f377b4a438a16b16001600160a01b03166318160ddd6040518163ffffffff1660e01b815260040160206040518083038186803b15801561099857600080fd5b505afa1580156109ac573d6000803e3d6000fd5b505050506040513d601f19601f820116820180604052508101906109d09190612c69565b6040516370a0823160e01b815273f28164a485b0b2c90639e47b0f377b4a438a16b1600482015290915060009073831753dd7087cac61ab5644b308642cc1c33dc13906370a082319060240160206040518083038186803b158015610a3457600080fd5b505afa158015610a48573d6000803e3d6000fd5b505050506040513d601f19601f82011682018060405250810190610a6c9190612c69565b905060008060005b85811015610b3a57868682818110610a8e57610a8e612bc6565b90506040020160200135830192508460001480610aa9575083155b15610ad157868682818110610ac057610ac0612bc6565b905060400201602001359150610b01565b8385888884818110610ae557610ae5612bc6565b905060400201602001350281610afd57610afd612c82565b0491505b610b32878783818110610b1657610b16612bc6565b610b2c9260206040909202019081019150612926565b83611bc4565b600101610a74565b50610b5b73831753dd7087cac61ab5644b308642cc1c33dc13333085611dae565b604051632967cf8360e21b81526004810183905273f28164a485b0b2c90639e47b0f377b4a438a16b19063a59f3e0c90602401600060405180830381600087803b158015610ba857600080fd5b505af1158015610bbc573d6000803e3d6000fd5b50505050505050505050565b60006108bc611eef565b6000546001600160a01b03163314610c055760405162461bcd60e51b8152600401610bfc90612c98565b60405180910390fd5b60005b818110156105305736838383818110610c2357610c23612bc6565b60600291909101915060009050610c3d6020830183612926565b6001600160a01b03161415610c9e5760405162461bcd60e51b815260206004820152602160248201527f52657761726420746f6b656e2063616e6e6f74206265206164647265737328306044820152602960f81b6064820152608401610bfc565b610cb3610cae6020830183612926565b611fe2565b610cca610cc36020830183612926565b60006120d1565b6000600181610cdc6020850185612926565b6001600160a01b0316815260208101919091526040908101600020805490925063ffffffff90811691610d15914291860135906119dd16565b1015610d635760405162461bcd60e51b815260206004820152601d60248201527f43616e6e6f7420726564756365206578697374696e6720706572696f640000006044820152606401610bfc565b805460009063ffffffff164210610d8d57610d8660208401356040850135611982565b9050610ddf565b8154600090610da79063ffffffff90811690429061191a16565b90506000610dc284600201548361197690919063ffffffff16565b9050610dda60408601356106976020880135846119dd565b925050505b600282018190556000610df56020850185612926565b6040516370a0823160e01b81523060048201526001600160a01b0391909116906370a082319060240160206040518083038186803b158015610e3657600080fd5b505afa158015610e4a573d6000803e3d6000fd5b505050506040513d601f19601f82011682018060405250810190610e6e9190612c69565b9050610e7e816040860135611982565b821115610ecd5760405162461bcd60e51b815260206004820152601860248201527f50726f76696465642072657761726420746f6f206869676800000000000000006044820152606401610bfc565b825463ffffffff428181166401000000000267ffffffff0000000019909316929092178555600091610f05916040880135906119dd16565b845463ffffffff191663ffffffff82161785559050610f276020860186612926565b6001600160a01b03167f6a6f77044107a33658235d41bedbbaf2fe9ccdceb313143c947a5e76e1ec8474866020013583604051610f6e929190918252602082015260400190565b60405180910390a250505050508080610f8690612c0a565b915050610c08565b6001600160a01b03811660009081526003602052604081205481805b82811015611035576001600160a01b0385166000908152600360205260408120805483908110610fdc57610fdc612bc6565b60009182526020808320909101546001600160a01b03908116808452600183526040808520928b16855260049092019092529091205490915061101f9084612bf2565b925050808061102d90612c0a565b915050610faa565b509392505050565b60006105ab8383611b3a565b60008061105583610f8e565b6040516315a33b5f60e31b81526004810182905290915073f28164a485b0b2c90639e47b0f377b4a438a16b19063ad19daf89060240160206040518083038186803b1580156110a357600080fd5b505afa1580156110b7573d6000803e3d6000fd5b505050506040513d601f19601f820116820180604052508101906110db9190612c69565b9392505050565b6000811161113e5760405162461bcd60e51b815260206004820152602360248201527f5f717569636b416d6f756e74206d75737420626520677265617465722074686160448201526206e20360ec1b6064820152608401610bfc565b61115e73831753dd7087cac61ab5644b308642cc1c33dc13333084611dae565b604051637ea715e960e01b81526004810182905260009073f28164a485b0b2c90639e47b0f377b4a438a16b190637ea715e99060240160206040518083038186803b1580156111ac57600080fd5b505afa1580156111c0573d6000803e3d6000fd5b505050506040513d601f19601f820116820180604052508101906111e49190612c69565b604051632967cf8360e21b81526004810184905290915073f28164a485b0b2c90639e47b0f377b4a438a16b19063a59f3e0c90602401600060405180830381600087803b15801561123457600080fd5b505af1158015611248573d6000803e3d6000fd5b50505050611255816117e2565b5050565b6000805b828110156112ec5783838281811061127757611277612bc6565b905060400201602001358261128c9190612bf2565b91506112da8484838181106112a3576112a3612bc6565b6112b99260206040909202019081019150612926565b8585848181106112cb576112cb612bc6565b90506040020160200135611bc4565b806112e481612c0a565b91505061125d565b5061053073f28164a485b0b2c90639e47b0f377b4a438a16b1333084611dae565b60006105ab838361216a565b600061052583836121fd565b6000546001600160a01b0316331461134f5760405162461bcd60e51b8152600401610bfc90612c98565b60025460005b8281101561154c57600084848381811061137157611371612bc6565b90506020020160208101906113869190612926565b6001600160a01b038116600090815260016020526040902054909150600160401b900463ffffffff16836113b981612c3c565b9450508061143c57816001600160a01b031660006002016000815481106113e2576113e2612bc6565b6000918252602090912001546001600160a01b03161461143c5760405162461bcd60e51b81526020600482015260156024820152741c995dd85c99151bdad95b881b9bdd08199bdd5b99605a1b6044820152606401610bfc565b8084146114dd57600080600201858154811061145a5761145a612bc6565b600091825260209091200154600280546001600160a01b03909216925082918490811061148957611489612bc6565b600091825260208083209190910180546001600160a01b0319166001600160a01b03948516179055929091168152600190915260409020805463ffffffff60401b1916600160401b63ffffffff8416021790555b60028054806114ee576114ee612cbb565b60008281526020808220830160001990810180546001600160a01b03191690559092019092556001600160a01b0393909316815260019092525060409020805463ffffffff60401b191690558061154481612c0a565b915050611355565b50505050565b60006106b8611eef565b6002546060908067ffffffffffffffff81111561157b5761157b612c53565b6040519080825280602002602001820160405280156115b457816020015b6115a161281c565b8152602001906001900390816115995790505b50915060005b8181101561162a5760008060020182815481106115d9576115d9612bc6565b6000918252602090912001546001600160a01b031690506115f981610535565b84838151811061160b5761160b612bc6565b602002602001018190525050808061162290612c0a565b9150506115ba565b505090565b60006105ab83836121fd565b6000610525838361216a565b6001600160a01b0381166000908152600160208190526040822090810154611673576003015492915050565b6110db6116bf8260010154610697670de0b6b3a76400006116b986600201546116b98860000160049054906101000a900463ffffffff1663ffffffff166106898c610913565b90611976565b6003830154906119dd565b6000546001600160a01b031633146116f45760405162461bcd60e51b8152600401610bfc90612c98565b600080546040516001600160a01b03808516939216917f8be0079c531659141344cd1fd0a4f28419497f9722a3daafe3b4186f6b6457e091a3600080546001600160a01b0319166001600160a01b0392909216919091179055565b6000805b8281101561062757600084848381811061176f5761176f612bc6565b90506020020160208101906117849190612926565b6001600160a01b03811660009081526001602090815260408083203384526004019091529020549091506117b88185612bf2565b93506117c48282612263565b6117cd82612386565b505080806117da90612c0a565b915050611753565b80156106c3576106c373f28164a485b0b2c90639e47b0f377b4a438a16b1338361256d565b80156106c3576040516315a33b5f60e31b81526004810182905260009073f28164a485b0b2c90639e47b0f377b4a438a16b19063ad19daf89060240160206040518083038186803b15801561185b57600080fd5b505afa15801561186f573d6000803e3d6000fd5b505050506040513d601f19601f820116820180604052508101906118939190612c69565b6040516367dfd4c960e01b81526004810184905290915073f28164a485b0b2c90639e47b0f377b4a438a16b1906367dfd4c990602401600060405180830381600087803b1580156118e357600080fd5b505af11580156118f7573d6000803e3d6000fd5b5050505061125573831753dd7087cac61ab5644b308642cc1c33dc13338361256d565b60008282111561196c5760405162461bcd60e51b815260206004820152601f60248201527f536166654d6174683a207375627472616374696f6e20756e646572666c6f77006044820152606401610bfc565b6110db8284612c25565b60006110db8284612cd1565b60008082116119d35760405162461bcd60e51b815260206004820152601a60248201527f536166654d6174683a206469766973696f6e206279207a65726f0000000000006044820152606401610bfc565b6110db8284612cf0565b60006110db8284612bf2565b33600090815260036020526040812080548290611a0890600190612c25565b90505b6000828281548110611a1f57611a1f612bc6565b60009182526020808320909101546001600160a01b0316808352600182526040808420338552600401909252912054909150611a5b8186612bf2565b9450611a678282612696565b82611a73575050505090565b50508080611a8090612c3c565b915050611a0b565b611a9281336120d1565b6001600160a01b03811660009081526001602090815260408083203384526004019091529020600281015480156105305760006002830155611ad583338361256d565b60405181815233906001600160a01b038516907f540798df468d7b23d11f156fdb954cb19ad414d150722a7b6d55ba369dea792e9060200160405180910390a381546105305761053083612386565b6000818310611b3357816110db565b5090919050565b6000805b82811015610627576000848483818110611b5a57611b5a612bc6565b9050602002016020810190611b6f9190612926565b6001600160a01b0381166000908152600160209081526040808320338452600401909152902054909150611ba38185612bf2565b9350611baf8282612696565b50508080611bbc90612c0a565b915050611b3e565b60008111611c055760405162461bcd60e51b815260206004820152600e60248201526d043616e6e6f74207374616b6520360941b6044820152606401610bfc565b6001600160a01b03821660009081526001602052604090208054600160401b900463ffffffff16611cc257826001600160a01b03166000600201600081548110611c5157611c51612bc6565b6000918252602090912001546001600160a01b031614611cc25760405162461bcd60e51b815260206004820152602660248201527f726577617264546f6b656e206e6f7420617574686f72697a656420666f72207360448201526574616b696e6760d01b6064820152608401610bfc565b611ccc83336120d1565b818160010154611cdc9190612bf2565b600182015533600090815260048201602052604090208054611cfe8482612bf2565b825580158015611d1057506002820154155b15611d66573360009081526003602081815260408084208054600484528286206001600160a01b038c16808852908552928620819055938352600184018155845292200180546001600160a01b03191690911790555b60405184815233906001600160a01b038716907f5dac0c1b1112564a045ba943c9d50270893e8e826c49be8e7073adc713ab7bd7906020015b60405180910390a35050505050565b833b611dfc5760405162461bcd60e51b815260206004820152601d60248201527f416464726573733a2063616c6c20746f206e6f6e2d636f6e74726163740000006044820152606401610bfc565b604080516001600160a01b0385811660248301528481166044830152606480830185905283518084039091018152608490920183526020820180516001600160e01b03166323b872dd60e01b1790529151600092839290881691611e609190612d3e565b6000604051808303816000865af19150503d8060008114611e9d576040519150601f19603f3d011682016040523d82523d6000602084013e611ea2565b606091505b5091509150611ee782826040518060400160405280601981526020017f4552433230207472616e7366657246726f6d206661696c6564000000000000008152506127b2565b505050505050565b33600090815260036020526040812080548290611f0e90600190612c25565b90505b6000828281548110611f2557611f25612bc6565b60009182526020808320909101546001600160a01b0316808352600182526040808420338552600401909252912054909150611f618186612bf2565b9450611f6d8282612263565b83805480611f7d57611f7d612cbb565b60008281526020808220830160001990810180546001600160a01b03191690559092019092553382526004815260408083206001600160a01b038616845290915281205582611fcd575050505090565b50508080611fda90612c3c565b915050611f11565b6001600160a01b038116600090815260016020526040902054600160401b900463ffffffff16801580156120495750816001600160a01b03166000600201828154811061203157612031612bc6565b6000918252602090912001546001600160a01b031614155b1561125557600280546001600160a01b03841660008181526001602081905260408220805463ffffffff909516600160401b0263ffffffff60401b199095169490941790935583549283018455929092527f405787fa12a823e0f2b7631cc41b3ba8828b3321ca811111fa75cd3aa3bb5ace0180546001600160a01b03191690911790555050565b6001600160a01b03821660009081526001602052604090206120f283611647565b600382015561210083610913565b815463ffffffff919091166401000000000267ffffffff00000000199091161781556001600160a01b03821615610530576001600160a01b03821660009081526004820160205260409020612155848461062e565b60028201556003820154600190910155505050565b6000805b82811015610627576121c284848381811061218b5761218b612bc6565b6121a19260206040909202019081019150612926565b8585848181106121b3576121b3612bc6565b90506040020160200135612696565b8383828181106121d4576121d4612bc6565b90506040020160200135826121e99190612bf2565b9150806121f581612c0a565b91505061216e565b6000805b82811015610627573684848381811061221c5761221c612bc6565b90506040020190508060200135836122349190612bf2565b92506122506122466020830183612926565b8260200135612263565b508061225b81612c0a565b915050612201565b61226d82336120d1565b6001600160a01b0382166000908152600160209081526040808320338452600481019092529091208215612325578054808411156122bd5760405162461bcd60e51b8152600401610bfc90612d5a565b838360010160008282546122d19190612c25565b909155506122e190508482612c25565b825560405184815233906001600160a01b038716907fd1c19fbcd4551a5edfb66d43d2e337c04837afda3482b42bdf569a8fccdae5fb9060200160405180910390a3505b6002810154801561237f576000600283015561234285338361256d565b60405181815233906001600160a01b038716907f540798df468d7b23d11f156fdb954cb19ad414d150722a7b6d55ba369dea792e90602001611d9f565b5050505050565b336000908152600360205260408120546123a290600190612c25565b3360009081526004602090815260408083206001600160a01b0387168452909152902054909150806124595733600090815260036020526040812080546001600160a01b03861692906123f7576123f7612bc6565b6000918252602090912001546001600160a01b0316146124595760405162461bcd60e51b815260206004820152601f60248201527f506f6f6c2069736e2774207374616b656420616e64206e6f20726577617264006044820152606401610bfc565b8082146125015733600090815260036020526040812080548490811061248157612481612bc6565b60009182526020808320909101543383526003909152604090912080546001600160a01b0390921692508291849081106124bd576124bd612bc6565b600091825260208083209190910180546001600160a01b0319166001600160a01b039485161790553382526004815260408083209490931682529290925290208190555b33600090815260036020526040902080548061251f5761251f612cbb565b60008281526020808220830160001990810180546001600160a01b03191690559092019092553382526004815260408083206001600160a01b03969096168352949052928320929092555050565b823b6125bb5760405162461bcd60e51b815260206004820152601d60248201527f416464726573733a2063616c6c20746f206e6f6e2d636f6e74726163740000006044820152606401610bfc565b604080516001600160a01b038481166024830152604480830185905283518084039091018152606490920183526020820180516001600160e01b031663a9059cbb60e01b17905291516000928392908716916126179190612d3e565b6000604051808303816000865af19150503d8060008114612654576040519150601f19603f3d011682016040523d82523d6000602084013e612659565b606091505b509150915061237f828260405180604001604052806015815260200174115490cc8c081d1c985b9cd9995c8819985a5b1959605a1b8152506127b2565b600081116126da5760405162461bcd60e51b8152602060048201526011602482015270043616e6e6f74207769746864726177203607c1b6044820152606401610bfc565b6126e482336120d1565b6001600160a01b03821660009081526001602090815260408083203384526004810190925290912080548084111561272e5760405162461bcd60e51b8152600401610bfc90612d5a565b838360010160008282546127429190612c25565b9091555061275290508482612c25565b80835590508015801561276757506002820154155b156127755761277585612386565b60405184815233906001600160a01b038716907fd1c19fbcd4551a5edfb66d43d2e337c04837afda3482b42bdf569a8fccdae5fb90602001611d9f565b82156127f25781511561053057818060200190518101906127d39190612da4565b819061154c5760405162461bcd60e51b8152600401610bfc9190612dc6565b8151156128025781518083602001fd5b8060405162461bcd60e51b8152600401610bfc9190612dc6565b6040518060a0016040528060006001600160a01b03168152602001600081526020016000815260200160008152602001600081525090565b6040518060a0016040528060006001600160a01b0316815260200160006001600160a01b031681526020016000815260200160008152602001600081525090565b600080602083850312156128a857600080fd5b823567ffffffffffffffff808211156128c057600080fd5b818501915085601f8301126128d457600080fd5b8135818111156128e357600080fd5b8660208260051b85010111156128f857600080fd5b60209290920196919550909350505050565b80356001600160a01b038116811461292157600080fd5b919050565b60006020828403121561293857600080fd5b6110db8261290a565b81516001600160a01b031681526020808301519082015260408083015190820152606080830151908201526080808301519082015260a081016106a8565b6000806040838503121561299257600080fd5b61299b8361290a565b91506129a96020840161290a565b90509250929050565b80516001600160a01b039081168352602080830151909116908301526040808201519083015260608082015190830152608090810151910152565b60a081016106a882846129b2565b6020808252825182820181905260009190848201906040850190845b81811015612a3d57612a2a8385516129b2565b9284019260a09290920191600101612a17565b50909695505050505050565b60008083601f840112612a5b57600080fd5b50813567ffffffffffffffff811115612a7357600080fd5b6020830191508360208260061b8501011115612a8e57600080fd5b9250929050565b60008060208385031215612aa857600080fd5b823567ffffffffffffffff811115612abf57600080fd5b612acb85828601612a49565b90969095509350505050565b60008060208385031215612aea57600080fd5b823567ffffffffffffffff80821115612b0257600080fd5b818501915085601f830112612b1657600080fd5b813581811115612b2557600080fd5b8660206060830285010111156128f857600080fd5b600060208284031215612b4c57600080fd5b5035919050565b6020808252825182820181905260009190848201906040850190845b81811015612a3d57612bb383855180516001600160a01b03168252602080820151908301526040808201519083015260608082015190830152608090810151910152565b9284019260a09290920191600101612b6f565b634e487b7160e01b600052603260045260246000fd5b634e487b7160e01b600052601160045260246000fd5b60008219821115612c0557612c05612bdc565b500190565b6000600019821415612c1e57612c1e612bdc565b5060010190565b600082821015612c3757612c37612bdc565b500390565b600081612c4b57612c4b612bdc565b506000190190565b634e487b7160e01b600052604160045260246000fd5b600060208284031215612c7b57600080fd5b5051919050565b634e487b7160e01b600052601260045260246000fd5b6020808252600990820152682737ba1037bbb732b960b91b604082015260600190565b634e487b7160e01b600052603160045260246000fd5b6000816000190483118215151615612ceb57612ceb612bdc565b500290565b600082612d0d57634e487b7160e01b600052601260045260246000fd5b500490565b60005b83811015612d2d578181015183820152602001612d15565b8381111561154c5750506000910152565b60008251612d50818460208701612d12565b9190910192915050565b6020808252602a908201527f416d6f756e7420746f2077697468647261772069732067726561746572207468604082015269616e2062616c616e636560b01b606082015260800190565b600060208284031215612db657600080fd5b815180151581146110db57600080fd5b6020815260008251806020840152612de5816040850160208701612d12565b601f01601f1916919091016040019291505056fea26469706673582212202071ad3f66fd6c438ef4bacd1f0a941db0bcf8b4ce398444624ee15adb72b2b664736f6c63430008090033",
  "linkReferences": {},
  "deployedLinkReferences": {}
}