{
  "_format": "hh-sol-artifact-1",
  "contractName": "QuickswapSyrupPools",
  "sourceName": "contracts/QuickswapSyrupPools.sol",
  "abi": [
    {
      "inputs": [
        {
          "internalType": "address",
          "name": "_owner",
          "type": "address"
        }
      ],
      "stateMutability": "nonpayable",
      "type": "constructor"
    },
    {
      "anonymous": false,
      "inputs": [
        {
          "indexed": true,
          "internalType": "address",
          "name": "previousOwner",
          "type": "address"
        },
        {
          "indexed": true,
          "internalType": "address",
          "name": "newOwner",
          "type": "address"
        }
      ],
      "name": "OwnershipTransferred",
      "type": "event"
    },
    {
      "anonymous": false,
      "inputs": [
        {
          "indexed": true,
          "internalType": "address",
          "name": "_rewardToken",
          "type": "address"
        },
        {
          "indexed": false,
          "internalType": "uint256",
          "name": "_reward",
          "type": "uint256"
        },
        {
          "indexed": false,
          "internalType": "uint256",
          "name": "_periodFinish",
          "type": "uint256"
        }
      ],
      "name": "RewardAdded",
      "type": "event"
    },
    {
      "anonymous": false,
      "inputs": [
        {
          "indexed": true,
          "internalType": "address",
          "name": "_rewardToken",
          "type": "address"
        },
        {
          "indexed": true,
          "internalType": "address",
          "name": "_staker",
          "type": "address"
        },
        {
          "indexed": false,
          "internalType": "uint256",
          "name": "_reward",
          "type": "uint256"
        }
      ],
      "name": "RewardPaid",
      "type": "event"
    },
    {
      "anonymous": false,
      "inputs": [
        {
          "indexed": true,
          "internalType": "address",
          "name": "_rewardToken",
          "type": "address"
        },
        {
          "indexed": true,
          "internalType": "address",
          "name": "_staker",
          "type": "address"
        },
        {
          "indexed": false,
          "internalType": "uint256",
          "name": "_amount",
          "type": "uint256"
        }
      ],
      "name": "Staked",
      "type": "event"
    },
    {
      "anonymous": false,
      "inputs": [
        {
          "indexed": true,
          "internalType": "address",
          "name": "_rewardToken",
          "type": "address"
        },
        {
          "indexed": true,
          "internalType": "address",
          "name": "_staker",
          "type": "address"
        },
        {
          "indexed": false,
          "internalType": "uint256",
          "name": "_amount",
          "type": "uint256"
        }
      ],
      "name": "Withdrawn",
      "type": "event"
    },
    {
      "inputs": [],
      "name": "DRAGON_LAIR",
      "outputs": [
        {
          "internalType": "contract IDragonLair",
          "name": "",
          "type": "address"
        }
      ],
      "stateMutability": "view",
      "type": "function"
    },
    {
      "inputs": [],
      "name": "QUICK",
      "outputs": [
        {
          "internalType": "address",
          "name": "",
          "type": "address"
        }
      ],
      "stateMutability": "view",
      "type": "function"
    },
    {
      "inputs": [
        {
          "internalType": "address",
          "name": "_account",
          "type": "address"
        }
      ],
      "name": "balanceOf",
      "outputs": [
        {
          "internalType": "uint256",
          "name": "",
          "type": "uint256"
        }
      ],
      "stateMutability": "view",
      "type": "function"
    },
    {
      "inputs": [
        {
          "internalType": "address",
          "name": "_rewardToken",
          "type": "address"
        },
        {
          "internalType": "address",
          "name": "_account",
          "type": "address"
        }
      ],
      "name": "balanceOf",
      "outputs": [
        {
          "internalType": "uint256",
          "name": "",
          "type": "uint256"
        }
      ],
      "stateMutability": "view",
      "type": "function"
    },
    {
      "inputs": [
        {
          "internalType": "address",
          "name": "_rewardToken",
          "type": "address"
        },
        {
          "internalType": "address",
          "name": "_account",
          "type": "address"
        }
      ],
      "name": "earned",
      "outputs": [
        {
          "internalType": "uint256",
          "name": "",
          "type": "uint256"
        }
      ],
      "stateMutability": "view",
      "type": "function"
    },
    {
      "inputs": [
        {
          "internalType": "uint256",
          "name": "_quickAmount",
          "type": "uint256"
        }
      ],
      "name": "enterDragonLair",
      "outputs": [],
      "stateMutability": "nonpayable",
      "type": "function"
    },
    {
      "inputs": [
        {
          "components": [
            {
              "internalType": "address",
              "name": "rewardToken",
              "type": "address"
            },
            {
              "internalType": "uint256",
              "name": "quickAmount",
              "type": "uint256"
            }
          ],
          "internalType": "struct QuickswapSyrupPools.QuickStakeInput[]",
          "name": "_quickStakeInput",
          "type": "tuple[]"
        }
      ],
      "name": "enterDragonLairAndStake",
      "outputs": [],
      "stateMutability": "nonpayable",
      "type": "function"
    },
    {
      "inputs": [
        {
          "components": [
            {
              "internalType": "address",
              "name": "rewardToken",
              "type": "address"
            },
            {
              "internalType": "uint256",
              "name": "amount",
              "type": "uint256"
            }
          ],
          "internalType": "struct QuickswapSyrupPools.StakeInput[]",
          "name": "_stakes",
          "type": "tuple[]"
        }
      ],
      "name": "exit",
      "outputs": [],
      "stateMutability": "nonpayable",
      "type": "function"
    },
    {
      "inputs": [
        {
          "internalType": "address[]",
          "name": "_rewardTokens",
          "type": "address[]"
        }
      ],
      "name": "exitAll",
      "outputs": [],
      "stateMutability": "nonpayable",
      "type": "function"
    },
    {
      "inputs": [
        {
          "internalType": "address[]",
          "name": "_rewardTokens",
          "type": "address[]"
        }
      ],
      "name": "exitAllAndDragonLair",
      "outputs": [],
      "stateMutability": "nonpayable",
      "type": "function"
    },
    {
      "inputs": [],
      "name": "exitAllFromAll",
      "outputs": [],
      "stateMutability": "nonpayable",
      "type": "function"
    },
    {
      "inputs": [],
      "name": "exitAllFromAllAndDragonLair",
      "outputs": [],
      "stateMutability": "nonpayable",
      "type": "function"
    },
    {
      "inputs": [
        {
          "components": [
            {
              "internalType": "address",
              "name": "rewardToken",
              "type": "address"
            },
            {
              "internalType": "uint256",
              "name": "amount",
              "type": "uint256"
            }
          ],
          "internalType": "struct QuickswapSyrupPools.StakeInput[]",
          "name": "_stakes",
          "type": "tuple[]"
        }
      ],
      "name": "exitAndDragonLair",
      "outputs": [],
      "stateMutability": "nonpayable",
      "type": "function"
    },
    {
      "inputs": [],
      "name": "getAllRewards",
      "outputs": [],
      "stateMutability": "nonpayable",
      "type": "function"
    },
    {
      "inputs": [
        {
          "internalType": "address[]",
          "name": "_rewardTokens",
          "type": "address[]"
        }
      ],
      "name": "getRewards",
      "outputs": [],
      "stateMutability": "nonpayable",
      "type": "function"
    },
    {
      "inputs": [
        {
          "internalType": "address",
          "name": "_rewardToken",
          "type": "address"
        }
      ],
      "name": "lastTimeRewardApplicable",
      "outputs": [
        {
          "internalType": "uint256",
          "name": "",
          "type": "uint256"
        }
      ],
      "stateMutability": "view",
      "type": "function"
    },
    {
      "inputs": [
        {
          "components": [
            {
              "internalType": "address",
              "name": "rewardToken",
              "type": "address"
            },
            {
              "internalType": "uint256",
              "name": "reward",
              "type": "uint256"
            },
            {
              "internalType": "uint256",
              "name": "rewardDuration",
              "type": "uint256"
            }
          ],
          "internalType": "struct QuickswapSyrupPools.RewardInfo[]",
          "name": "_rewards",
          "type": "tuple[]"
        }
      ],
      "name": "notifyRewardAmount",
      "outputs": [],
      "stateMutability": "nonpayable",
      "type": "function"
    },
    {
      "inputs": [],
      "name": "owner",
      "outputs": [
        {
          "internalType": "address",
          "name": "owner_",
          "type": "address"
        }
      ],
      "stateMutability": "view",
      "type": "function"
    },
    {
      "inputs": [
        {
          "internalType": "address",
          "name": "_rewardToken",
          "type": "address"
        }
      ],
      "name": "pool",
      "outputs": [
        {
          "components": [
            {
              "internalType": "address",
              "name": "rewardToken",
              "type": "address"
            },
            {
              "internalType": "uint256",
              "name": "periodFinish",
              "type": "uint256"
            },
            {
              "internalType": "uint256",
              "name": "totalSupply",
              "type": "uint256"
            },
            {
              "internalType": "uint256",
              "name": "rewardRate",
              "type": "uint256"
            },
            {
              "internalType": "uint256",
              "name": "rewardPerToken",
              "type": "uint256"
            }
          ],
          "internalType": "struct QuickswapSyrupPools.StakePool",
          "name": "stakePool_",
          "type": "tuple"
        }
      ],
      "stateMutability": "view",
      "type": "function"
    },
    {
      "inputs": [],
      "name": "pools",
      "outputs": [
        {
          "components": [
            {
              "internalType": "address",
              "name": "rewardToken",
              "type": "address"
            },
            {
              "internalType": "uint256",
              "name": "periodFinish",
              "type": "uint256"
            },
            {
              "internalType": "uint256",
              "name": "totalSupply",
              "type": "uint256"
            },
            {
              "internalType": "uint256",
              "name": "rewardRate",
              "type": "uint256"
            },
            {
              "internalType": "uint256",
              "name": "rewardPerToken",
              "type": "uint256"
            }
          ],
          "internalType": "struct QuickswapSyrupPools.StakePool[]",
          "name": "stakePools_",
          "type": "tuple[]"
        }
      ],
      "stateMutability": "view",
      "type": "function"
    },
    {
      "inputs": [
        {
          "internalType": "address",
          "name": "_account",
          "type": "address"
        }
      ],
      "name": "quickBalanceOf",
      "outputs": [
        {
          "internalType": "uint256",
          "name": "",
          "type": "uint256"
        }
      ],
      "stateMutability": "view",
      "type": "function"
    },
    {
      "inputs": [
        {
          "internalType": "address[]",
          "name": "_rewardTokens",
          "type": "address[]"
        }
      ],
      "name": "removeStakingPools",
      "outputs": [],
      "stateMutability": "nonpayable",
      "type": "function"
    },
    {
      "inputs": [
        {
          "internalType": "address",
          "name": "_rewardToken",
          "type": "address"
        }
      ],
      "name": "rewardPerToken",
      "outputs": [
        {
          "internalType": "uint256",
          "name": "",
          "type": "uint256"
        }
      ],
      "stateMutability": "view",
      "type": "function"
    },
    {
      "inputs": [
        {
          "components": [
            {
              "internalType": "address",
              "name": "rewardToken",
              "type": "address"
            },
            {
              "internalType": "uint256",
              "name": "amount",
              "type": "uint256"
            }
          ],
          "internalType": "struct QuickswapSyrupPools.StakeInput[]",
          "name": "_stakes",
          "type": "tuple[]"
        }
      ],
      "name": "stake",
      "outputs": [],
      "stateMutability": "nonpayable",
      "type": "function"
    },
    {
      "inputs": [
        {
          "internalType": "address",
          "name": "_rewardToken",
          "type": "address"
        },
        {
          "internalType": "address",
          "name": "_staker",
          "type": "address"
        }
      ],
      "name": "stakerPool",
      "outputs": [
        {
          "components": [
            {
              "internalType": "address",
              "name": "rewardToken",
              "type": "address"
            },
            {
              "internalType": "address",
              "name": "staker",
              "type": "address"
            },
            {
              "internalType": "uint256",
              "name": "periodFinish",
              "type": "uint256"
            },
            {
              "internalType": "uint256",
              "name": "balance",
              "type": "uint256"
            },
            {
              "internalType": "uint256",
              "name": "earned",
              "type": "uint256"
            }
          ],
          "internalType": "struct QuickswapSyrupPools.StakerPool",
          "name": "stakerPool_",
          "type": "tuple"
        }
      ],
      "stateMutability": "view",
      "type": "function"
    },
    {
      "inputs": [
        {
          "internalType": "address",
          "name": "_staker",
          "type": "address"
        }
      ],
      "name": "stakerPools",
      "outputs": [
        {
          "components": [
            {
              "internalType": "address",
              "name": "rewardToken",
              "type": "address"
            },
            {
              "internalType": "address",
              "name": "staker",
              "type": "address"
            },
            {
              "internalType": "uint256",
              "name": "periodFinish",
              "type": "uint256"
            },
            {
              "internalType": "uint256",
              "name": "balance",
              "type": "uint256"
            },
            {
              "internalType": "uint256",
              "name": "earned",
              "type": "uint256"
            }
          ],
          "internalType": "struct QuickswapSyrupPools.StakerPool[]",
          "name": "stakerPools_",
          "type": "tuple[]"
        }
      ],
      "stateMutability": "view",
      "type": "function"
    },
    {
      "inputs": [],
      "name": "totalSupply",
      "outputs": [
        {
          "internalType": "uint256",
          "name": "",
          "type": "uint256"
        }
      ],
      "stateMutability": "view",
      "type": "function"
    },
    {
      "inputs": [
        {
          "internalType": "address",
          "name": "_rewardToken",
          "type": "address"
        }
      ],
      "name": "totalSupply",
      "outputs": [
        {
          "internalType": "uint256",
          "name": "",
          "type": "uint256"
        }
      ],
      "stateMutability": "view",
      "type": "function"
    },
    {
      "inputs": [
        {
          "internalType": "address",
          "name": "_newOwner",
          "type": "address"
        }
      ],
      "name": "transferOwnership",
      "outputs": [],
      "stateMutability": "nonpayable",
      "type": "function"
    },
    {
      "inputs": [
        {
          "components": [
            {
              "internalType": "address",
              "name": "rewardToken",
              "type": "address"
            },
            {
              "internalType": "uint256",
              "name": "amount",
              "type": "uint256"
            }
          ],
          "internalType": "struct QuickswapSyrupPools.StakeInput[]",
          "name": "_stakes",
          "type": "tuple[]"
        }
      ],
      "name": "withdraw",
      "outputs": [],
      "stateMutability": "nonpayable",
      "type": "function"
    },
    {
      "inputs": [
        {
          "internalType": "address[]",
          "name": "_rewardTokens",
          "type": "address[]"
        }
      ],
      "name": "withdrawAll",
      "outputs": [],
      "stateMutability": "nonpayable",
      "type": "function"
    },
    {
      "inputs": [
        {
          "internalType": "address[]",
          "name": "_rewardTokens",
          "type": "address[]"
        }
      ],
      "name": "withdrawAllAndDragonLair",
      "outputs": [],
      "stateMutability": "nonpayable",
      "type": "function"
    },
    {
      "inputs": [],
      "name": "withdrawAllFromAll",
      "outputs": [],
      "stateMutability": "nonpayable",
      "type": "function"
    },
    {
      "inputs": [],
      "name": "withdrawAllFromAllAndDragonLair",
      "outputs": [],
      "stateMutability": "nonpayable",
      "type": "function"
    },
    {
      "inputs": [
        {
          "components": [
            {
              "internalType": "address",
              "name": "rewardToken",
              "type": "address"
            },
            {
              "internalType": "uint256",
              "name": "amount",
              "type": "uint256"
            }
          ],
          "internalType": "struct QuickswapSyrupPools.StakeInput[]",
          "name": "_stakes",
          "type": "tuple[]"
        }
      ],
      "name": "withdrawAndDragonLair",
      "outputs": [],
      "stateMutability": "nonpayable",
      "type": "function"
    }
  ],
  "bytecode": "0x60806040523480156200001157600080fd5b5060405162002f8338038062002f838339810160408190526200003491620000fb565b600080546001600160a01b0319166001600160a01b03831617905560405163095ea7b360e01b815273f28164a485b0b2c90639e47b0f377b4a438a16b16004820152600019602482015273831753dd7087cac61ab5644b308642cc1c33dc139063095ea7b390604401602060405180830381600087803b158015620000b857600080fd5b505af1158015620000cd573d6000803e3d6000fd5b505050506040513d601f19601f82011682018060405250810190620000f391906200012d565b505062000151565b6000602082840312156200010e57600080fd5b81516001600160a01b03811681146200012657600080fd5b9392505050565b6000602082840312156200014057600080fd5b815180151581146200012657600080fd5b612e2280620001616000396000f3fe608060405234801561001057600080fd5b50600436106102115760003560e01c80636bedd933116101255780638fa89112116100ad578063e4dc2aa41161007c578063e4dc2aa414610476578063ecdbb2b3146104a3578063f1229777146104b6578063f2fde38b146104c9578063f7888aec146104dc57600080fd5b80638fa8911214610433578063aed5376d14610446578063c5c51dca1461044e578063dfdf88fa1461046357600080fd5b80637de14cb2116100f45780637de14cb2146103d6578063801c5236146103e9578063815d70ce146103fc57806383ac7d701461040f5780638da5cb5b1461042257600080fd5b80636bedd9331461038a57806370a082311461039d578063743fd132146103b05780637dca1088146103c357600080fd5b806344da9ae0116101a8578063510ccb4311610177578063510ccb4314610336578063638634ee146103495780636568a2791461035c578063661adcec1461036f57806368e55dd31461038257600080fd5b806344da9ae0146102e657806345b35f56146103065780634e7c59551461030e578063506314161461032e57600080fd5b8063188672a0116101e4578063188672a01461027d5780631ad56247146102b0578063211dc32d146102cb5780633af9a92d146102de57600080fd5b806303fd42de14610216578063156522a81461022b578063177002721461025457806318160ddd14610267575b600080fd5b610229610224366004612888565b610519565b005b61023e610239366004612919565b610535565b60405161024b9190612934565b60405180910390f35b610229610262366004612888565b61059f565b61026f6105b6565b60405190815260200161024b565b61029873831753dd7087cac61ab5644b308642cc1c33dc1381565b6040516001600160a01b03909116815260200161024b565b61029873f28164a485b0b2c90639e47b0f377b4a438a16b181565b61026f6102d9366004612972565b61062e565b6102296106ae565b6102f96102f4366004612972565b6106c6565b60405161024b91906129e0565b61022961073c565b61032161031c366004612919565b6107ac565b60405161024b91906129ee565b6102296108a9565b610229610344366004612888565b6108be565b61026f610357366004612919565b61090a565b61022961036a366004612888565b610934565b61022961037d366004612a88565b610940565b610229610bbf565b610229610398366004612aca565b610bc9565b61026f6103ab366004612919565b610f85565b6102296103be366004612888565b611034565b61026f6103d1366004612919565b611040565b6102296103e4366004612b2d565b6110d9565b6102296103f7366004612a88565b61124c565b61022961040a366004612a88565b611300565b61022961041d366004612a88565b61130c565b6000546001600160a01b0316610298565b610229610441366004612888565b611318565b610229611545565b61045661154f565b60405161024b9190612b46565b610229610471366004612a88565b611622565b61026f610484366004612919565b6001600160a01b03166000908152600160208190526040909120015490565b6102296104b1366004612a88565b61162e565b61026f6104c4366004612919565b61163a565b6102296104d7366004612919565b6116bd565b61026f6104ea366004612972565b6001600160a01b0391821660009081526001602090815260408083209390941682526004909201909152205490565b60006105258383611742565b9050610530816117d5565b505050565b61053d61280f565b6001600160a01b038216600081815260016020818152604092839020835160a081018552948552805463ffffffff169185019190915290810154918301919091526002810154606083015290608081016105968561163a565b90529392505050565b60006105ab8383611742565b9050610530816117fa565b60025460009081805b828110156106275760028054600191600091849081106105e1576105e1612bb9565b60009182526020808320909101546001600160a01b031683528201929092526040019020600101546106139083612be5565b91508061061f81612bfd565b9150506105bf565b5092915050565b6001600160a01b038083166000908152600160208181526040808420948616845260048501909152822060028101549181015492939290916106a39161069d90670de0b6b3a7640000906106979061068f906106898c61163a565b9061190d565b865490611969565b90611975565b906119d0565b925050505b92915050565b60006106b86119dc565b90506106c3816117fa565b50565b6106ce612847565b6001600160a01b03808416600081815260016020908152604080832094871680845260048601835292819020815160a08101835294855291840192909252835463ffffffff1691830191909152805460608301529060808101610731878761062e565b905295945050505050565b33600090815260036020526040812054905b818110156107a857336000908152600360205260409020805461079691908390811061077c5761077c612bb9565b6000918252602090912001546001600160a01b0316611a7b565b806107a081612bfd565b91505061074e565b5050565b6001600160a01b0381166000908152600360205260409020546060908067ffffffffffffffff8111156107e1576107e1612c18565b60405190808252806020026020018201604052801561081a57816020015b610807612847565b8152602001906001900390816107ff5790505b50915060005b818110156108a2576001600160a01b0384166000908152600360205260409020805461087291908390811061085757610857612bb9565b6000918252602090912001546001600160a01b0316856106c6565b83828151811061088457610884612bb9565b6020026020010181905250808061089a90612bfd565b915050610820565b5050919050565b60006108b36119dc565b90506106c3816117d5565b60005b81811015610530576108f88383838181106108de576108de612bb9565b90506020020160208101906108f39190612919565b611a7b565b8061090281612bfd565b9150506108c1565b6001600160a01b0381166000908152600160205260408120546106a890429063ffffffff16611b17565b60006105258383611b2d565b600073f28164a485b0b2c90639e47b0f377b4a438a16b16001600160a01b03166318160ddd6040518163ffffffff1660e01b815260040160206040518083038186803b15801561098f57600080fd5b505afa1580156109a3573d6000803e3d6000fd5b505050506040513d601f19601f820116820180604052508101906109c79190612c2e565b6040516370a0823160e01b815273f28164a485b0b2c90639e47b0f377b4a438a16b1600482015290915060009073831753dd7087cac61ab5644b308642cc1c33dc13906370a082319060240160206040518083038186803b158015610a2b57600080fd5b505afa158015610a3f573d6000803e3d6000fd5b505050506040513d601f19601f82011682018060405250810190610a639190612c2e565b905060008060005b85811015610b3157868682818110610a8557610a85612bb9565b90506040020160200135830192508460001480610aa0575083155b15610ac857868682818110610ab757610ab7612bb9565b905060400201602001359150610af8565b8385888884818110610adc57610adc612bb9565b905060400201602001350281610af457610af4612c47565b0491505b610b29878783818110610b0d57610b0d612bb9565b610b239260206040909202019081019150612919565b83611bb7565b600101610a6b565b50610b5273831753dd7087cac61ab5644b308642cc1c33dc13333085611da1565b604051632967cf8360e21b81526004810183905273f28164a485b0b2c90639e47b0f377b4a438a16b19063a59f3e0c90602401600060405180830381600087803b158015610b9f57600080fd5b505af1158015610bb3573d6000803e3d6000fd5b50505050505050505050565b60006108b3611ee2565b6000546001600160a01b03163314610bfc5760405162461bcd60e51b8152600401610bf390612c5d565b60405180910390fd5b60005b818110156105305736838383818110610c1a57610c1a612bb9565b60600291909101915060009050610c346020830183612919565b6001600160a01b03161415610c955760405162461bcd60e51b815260206004820152602160248201527f52657761726420746f6b656e2063616e6e6f74206265206164647265737328306044820152602960f81b6064820152608401610bf3565b610caa610ca56020830183612919565b611fd5565b610cc1610cba6020830183612919565b60006120c4565b6000600181610cd36020850185612919565b6001600160a01b0316815260208101919091526040908101600020805490925063ffffffff90811691610d0c914291860135906119d016565b1015610d5a5760405162461bcd60e51b815260206004820152601d60248201527f43616e6e6f7420726564756365206578697374696e6720706572696f640000006044820152606401610bf3565b805460009063ffffffff164210610d8457610d7d60208401356040850135611975565b9050610dd6565b8154600090610d9e9063ffffffff90811690429061190d16565b90506000610db984600201548361196990919063ffffffff16565b9050610dd160408601356106976020880135846119d0565b925050505b600282018190556000610dec6020850185612919565b6040516370a0823160e01b81523060048201526001600160a01b0391909116906370a082319060240160206040518083038186803b158015610e2d57600080fd5b505afa158015610e41573d6000803e3d6000fd5b505050506040513d601f19601f82011682018060405250810190610e659190612c2e565b9050610e75816040860135611975565b821115610ec45760405162461bcd60e51b815260206004820152601860248201527f50726f76696465642072657761726420746f6f206869676800000000000000006044820152606401610bf3565b825463ffffffff428181166401000000000267ffffffff0000000019909316929092178555600091610efc916040880135906119d016565b845463ffffffff191663ffffffff82161785559050610f1e6020860186612919565b6001600160a01b03167f6a6f77044107a33658235d41bedbbaf2fe9ccdceb313143c947a5e76e1ec8474866020013583604051610f65929190918252602082015260400190565b60405180910390a250505050508080610f7d90612bfd565b915050610bff565b6001600160a01b03811660009081526003602052604081205481805b8281101561102c576001600160a01b0385166000908152600360205260408120805483908110610fd357610fd3612bb9565b60009182526020808320909101546001600160a01b03908116808452600183526040808520928b1685526004909201909252909120549091506110169084612be5565b925050808061102490612bfd565b915050610fa1565b509392505050565b60006105ab8383611b2d565b60008061104c83610f85565b6040516315a33b5f60e31b81526004810182905290915073f28164a485b0b2c90639e47b0f377b4a438a16b19063ad19daf89060240160206040518083038186803b15801561109a57600080fd5b505afa1580156110ae573d6000803e3d6000fd5b505050506040513d601f19601f820116820180604052508101906110d29190612c2e565b9392505050565b600081116111355760405162461bcd60e51b815260206004820152602360248201527f5f717569636b416d6f756e74206d75737420626520677265617465722074686160448201526206e20360ec1b6064820152608401610bf3565b61115573831753dd7087cac61ab5644b308642cc1c33dc13333084611da1565b604051637ea715e960e01b81526004810182905260009073f28164a485b0b2c90639e47b0f377b4a438a16b190637ea715e99060240160206040518083038186803b1580156111a357600080fd5b505afa1580156111b7573d6000803e3d6000fd5b505050506040513d601f19601f820116820180604052508101906111db9190612c2e565b604051632967cf8360e21b81526004810184905290915073f28164a485b0b2c90639e47b0f377b4a438a16b19063a59f3e0c90602401600060405180830381600087803b15801561122b57600080fd5b505af115801561123f573d6000803e3d6000fd5b505050506107a8816117d5565b6000805b828110156112df5783838281811061126a5761126a612bb9565b905060400201602001358261127f9190612be5565b91506112cd84848381811061129657611296612bb9565b6112ac9260206040909202019081019150612919565b8585848181106112be576112be612bb9565b90506040020160200135611bb7565b806112d781612bfd565b915050611250565b5061053073f28164a485b0b2c90639e47b0f377b4a438a16b1333084611da1565b60006105ab838361215d565b600061052583836121f0565b6000546001600160a01b031633146113425760405162461bcd60e51b8152600401610bf390612c5d565b60025460005b8281101561153f57600084848381811061136457611364612bb9565b90506020020160208101906113799190612919565b6001600160a01b038116600090815260016020526040902054909150600160401b900463ffffffff16836113ac81612c80565b9450508061142f57816001600160a01b031660006002016000815481106113d5576113d5612bb9565b6000918252602090912001546001600160a01b03161461142f5760405162461bcd60e51b81526020600482015260156024820152741c995dd85c99151bdad95b881b9bdd08199bdd5b99605a1b6044820152606401610bf3565b8084146114d057600080600201858154811061144d5761144d612bb9565b600091825260209091200154600280546001600160a01b03909216925082918490811061147c5761147c612bb9565b600091825260208083209190910180546001600160a01b0319166001600160a01b03948516179055929091168152600190915260409020805463ffffffff60401b1916600160401b63ffffffff8416021790555b60028054806114e1576114e1612c97565b60008281526020808220830160001990810180546001600160a01b03191690559092019092556001600160a01b0393909316815260019092525060409020805463ffffffff60401b191690558061153781612bfd565b915050611348565b50505050565b60006106b8611ee2565b6002546060908067ffffffffffffffff81111561156e5761156e612c18565b6040519080825280602002602001820160405280156115a757816020015b61159461280f565b81526020019060019003908161158c5790505b50915060005b8181101561161d5760008060020182815481106115cc576115cc612bb9565b6000918252602090912001546001600160a01b031690506115ec81610535565b8483815181106115fe576115fe612bb9565b602002602001018190525050808061161590612bfd565b9150506115ad565b505090565b60006105ab83836121f0565b6000610525838361215d565b6001600160a01b0381166000908152600160208190526040822090810154611666576003015492915050565b6110d26116b28260010154610697670de0b6b3a76400006116ac86600201546116ac8860000160049054906101000a900463ffffffff1663ffffffff166106898c61090a565b90611969565b6003830154906119d0565b6000546001600160a01b031633146116e75760405162461bcd60e51b8152600401610bf390612c5d565b600080546040516001600160a01b03808516939216917f8be0079c531659141344cd1fd0a4f28419497f9722a3daafe3b4186f6b6457e091a3600080546001600160a01b0319166001600160a01b0392909216919091179055565b6000805b8281101561062757600084848381811061176257611762612bb9565b90506020020160208101906117779190612919565b6001600160a01b03811660009081526001602090815260408083203384526004019091529020549091506117ab8185612be5565b93506117b78282612256565b6117c082612379565b505080806117cd90612bfd565b915050611746565b80156106c3576106c373f28164a485b0b2c90639e47b0f377b4a438a16b13383612560565b80156106c3576040516315a33b5f60e31b81526004810182905260009073f28164a485b0b2c90639e47b0f377b4a438a16b19063ad19daf89060240160206040518083038186803b15801561184e57600080fd5b505afa158015611862573d6000803e3d6000fd5b505050506040513d601f19601f820116820180604052508101906118869190612c2e565b6040516367dfd4c960e01b81526004810184905290915073f28164a485b0b2c90639e47b0f377b4a438a16b1906367dfd4c990602401600060405180830381600087803b1580156118d657600080fd5b505af11580156118ea573d6000803e3d6000fd5b505050506107a873831753dd7087cac61ab5644b308642cc1c33dc133383612560565b60008282111561195f5760405162461bcd60e51b815260206004820152601f60248201527f536166654d6174683a207375627472616374696f6e20756e646572666c6f77006044820152606401610bf3565b6110d28284612cad565b60006110d28284612cc4565b60008082116119c65760405162461bcd60e51b815260206004820152601a60248201527f536166654d6174683a206469766973696f6e206279207a65726f0000000000006044820152606401610bf3565b6110d28284612ce3565b60006110d28284612be5565b336000908152600360205260408120805482906119fb90600190612cad565b90505b6000828281548110611a1257611a12612bb9565b60009182526020808320909101546001600160a01b0316808352600182526040808420338552600401909252912054909150611a4e8186612be5565b9450611a5a8282612689565b82611a66575050505090565b50508080611a7390612c80565b9150506119fe565b611a8581336120c4565b6001600160a01b03811660009081526001602090815260408083203384526004019091529020600281015480156105305760006002830155611ac8833383612560565b60405181815233906001600160a01b038516907f540798df468d7b23d11f156fdb954cb19ad414d150722a7b6d55ba369dea792e9060200160405180910390a381546105305761053083612379565b6000818310611b2657816110d2565b5090919050565b6000805b82811015610627576000848483818110611b4d57611b4d612bb9565b9050602002016020810190611b629190612919565b6001600160a01b0381166000908152600160209081526040808320338452600401909152902054909150611b968185612be5565b9350611ba28282612689565b50508080611baf90612bfd565b915050611b31565b60008111611bf85760405162461bcd60e51b815260206004820152600e60248201526d043616e6e6f74207374616b6520360941b6044820152606401610bf3565b6001600160a01b03821660009081526001602052604090208054600160401b900463ffffffff16611cb557826001600160a01b03166000600201600081548110611c4457611c44612bb9565b6000918252602090912001546001600160a01b031614611cb55760405162461bcd60e51b815260206004820152602660248201527f726577617264546f6b656e206e6f7420617574686f72697a656420666f72207360448201526574616b696e6760d01b6064820152608401610bf3565b611cbf83336120c4565b818160010154611ccf9190612be5565b600182015533600090815260048201602052604090208054611cf18482612be5565b825580158015611d0357506002820154155b15611d59573360009081526003602081815260408084208054600484528286206001600160a01b038c16808852908552928620819055938352600184018155845292200180546001600160a01b03191690911790555b60405184815233906001600160a01b038716907f5dac0c1b1112564a045ba943c9d50270893e8e826c49be8e7073adc713ab7bd7906020015b60405180910390a35050505050565b833b611def5760405162461bcd60e51b815260206004820152601d60248201527f416464726573733a2063616c6c20746f206e6f6e2d636f6e74726163740000006044820152606401610bf3565b604080516001600160a01b0385811660248301528481166044830152606480830185905283518084039091018152608490920183526020820180516001600160e01b03166323b872dd60e01b1790529151600092839290881691611e539190612d31565b6000604051808303816000865af19150503d8060008114611e90576040519150601f19603f3d011682016040523d82523d6000602084013e611e95565b606091505b5091509150611eda82826040518060400160405280601981526020017f4552433230207472616e7366657246726f6d206661696c6564000000000000008152506127a5565b505050505050565b33600090815260036020526040812080548290611f0190600190612cad565b90505b6000828281548110611f1857611f18612bb9565b60009182526020808320909101546001600160a01b0316808352600182526040808420338552600401909252912054909150611f548186612be5565b9450611f608282612256565b83805480611f7057611f70612c97565b60008281526020808220830160001990810180546001600160a01b03191690559092019092553382526004815260408083206001600160a01b038616845290915281205582611fc0575050505090565b50508080611fcd90612c80565b915050611f04565b6001600160a01b038116600090815260016020526040902054600160401b900463ffffffff168015801561203c5750816001600160a01b03166000600201828154811061202457612024612bb9565b6000918252602090912001546001600160a01b031614155b156107a857600280546001600160a01b03841660008181526001602081905260408220805463ffffffff909516600160401b0263ffffffff60401b199095169490941790935583549283018455929092527f405787fa12a823e0f2b7631cc41b3ba8828b3321ca811111fa75cd3aa3bb5ace0180546001600160a01b03191690911790555050565b6001600160a01b03821660009081526001602052604090206120e58361163a565b60038201556120f38361090a565b815463ffffffff919091166401000000000267ffffffff00000000199091161781556001600160a01b03821615610530576001600160a01b03821660009081526004820160205260409020612148848461062e565b60028201556003820154600190910155505050565b6000805b82811015610627576121b584848381811061217e5761217e612bb9565b6121949260206040909202019081019150612919565b8585848181106121a6576121a6612bb9565b90506040020160200135612689565b8383828181106121c7576121c7612bb9565b90506040020160200135826121dc9190612be5565b9150806121e881612bfd565b915050612161565b6000805b82811015610627573684848381811061220f5761220f612bb9565b90506040020190508060200135836122279190612be5565b92506122436122396020830183612919565b8260200135612256565b508061224e81612bfd565b9150506121f4565b61226082336120c4565b6001600160a01b0382166000908152600160209081526040808320338452600481019092529091208215612318578054808411156122b05760405162461bcd60e51b8152600401610bf390612d4d565b838360010160008282546122c49190612cad565b909155506122d490508482612cad565b825560405184815233906001600160a01b038716907fd1c19fbcd4551a5edfb66d43d2e337c04837afda3482b42bdf569a8fccdae5fb9060200160405180910390a3505b600281015480156123725760006002830155612335853383612560565b60405181815233906001600160a01b038716907f540798df468d7b23d11f156fdb954cb19ad414d150722a7b6d55ba369dea792e90602001611d92565b5050505050565b3360009081526003602052604081205461239590600190612cad565b3360009081526004602090815260408083206001600160a01b03871684529091529020549091508061244c5733600090815260036020526040812080546001600160a01b03861692906123ea576123ea612bb9565b6000918252602090912001546001600160a01b03161461244c5760405162461bcd60e51b815260206004820152601f60248201527f506f6f6c2069736e2774207374616b656420616e64206e6f20726577617264006044820152606401610bf3565b8082146124f45733600090815260036020526040812080548490811061247457612474612bb9565b60009182526020808320909101543383526003909152604090912080546001600160a01b0390921692508291849081106124b0576124b0612bb9565b600091825260208083209190910180546001600160a01b0319166001600160a01b039485161790553382526004815260408083209490931682529290925290208190555b33600090815260036020526040902080548061251257612512612c97565b60008281526020808220830160001990810180546001600160a01b03191690559092019092553382526004815260408083206001600160a01b03969096168352949052928320929092555050565b823b6125ae5760405162461bcd60e51b815260206004820152601d60248201527f416464726573733a2063616c6c20746f206e6f6e2d636f6e74726163740000006044820152606401610bf3565b604080516001600160a01b038481166024830152604480830185905283518084039091018152606490920183526020820180516001600160e01b031663a9059cbb60e01b179052915160009283929087169161260a9190612d31565b6000604051808303816000865af19150503d8060008114612647576040519150601f19603f3d011682016040523d82523d6000602084013e61264c565b606091505b5091509150612372828260405180604001604052806015815260200174115490cc8c081d1c985b9cd9995c8819985a5b1959605a1b8152506127a5565b600081116126cd5760405162461bcd60e51b8152602060048201526011602482015270043616e6e6f74207769746864726177203607c1b6044820152606401610bf3565b6126d782336120c4565b6001600160a01b0382166000908152600160209081526040808320338452600481019092529091208054808411156127215760405162461bcd60e51b8152600401610bf390612d4d565b838360010160008282546127359190612cad565b9091555061274590508482612cad565b80835590508015801561275a57506002820154155b156127685761276885612379565b60405184815233906001600160a01b038716907fd1c19fbcd4551a5edfb66d43d2e337c04837afda3482b42bdf569a8fccdae5fb90602001611d92565b82156127e55781511561053057818060200190518101906127c69190612d97565b819061153f5760405162461bcd60e51b8152600401610bf39190612db9565b8151156127f55781518083602001fd5b8060405162461bcd60e51b8152600401610bf39190612db9565b6040518060a0016040528060006001600160a01b03168152602001600081526020016000815260200160008152602001600081525090565b6040518060a0016040528060006001600160a01b0316815260200160006001600160a01b031681526020016000815260200160008152602001600081525090565b6000806020838503121561289b57600080fd5b823567ffffffffffffffff808211156128b357600080fd5b818501915085601f8301126128c757600080fd5b8135818111156128d657600080fd5b8660208260051b85010111156128eb57600080fd5b60209290920196919550909350505050565b80356001600160a01b038116811461291457600080fd5b919050565b60006020828403121561292b57600080fd5b6110d2826128fd565b81516001600160a01b031681526020808301519082015260408083015190820152606080830151908201526080808301519082015260a081016106a8565b6000806040838503121561298557600080fd5b61298e836128fd565b915061299c602084016128fd565b90509250929050565b80516001600160a01b039081168352602080830151909116908301526040808201519083015260608082015190830152608090810151910152565b60a081016106a882846129a5565b6020808252825182820181905260009190848201906040850190845b81811015612a3057612a1d8385516129a5565b9284019260a09290920191600101612a0a565b50909695505050505050565b60008083601f840112612a4e57600080fd5b50813567ffffffffffffffff811115612a6657600080fd5b6020830191508360208260061b8501011115612a8157600080fd5b9250929050565b60008060208385031215612a9b57600080fd5b823567ffffffffffffffff811115612ab257600080fd5b612abe85828601612a3c565b90969095509350505050565b60008060208385031215612add57600080fd5b823567ffffffffffffffff80821115612af557600080fd5b818501915085601f830112612b0957600080fd5b813581811115612b1857600080fd5b8660206060830285010111156128eb57600080fd5b600060208284031215612b3f57600080fd5b5035919050565b6020808252825182820181905260009190848201906040850190845b81811015612a3057612ba683855180516001600160a01b03168252602080820151908301526040808201519083015260608082015190830152608090810151910152565b9284019260a09290920191600101612b62565b634e487b7160e01b600052603260045260246000fd5b634e487b7160e01b600052601160045260246000fd5b60008219821115612bf857612bf8612bcf565b500190565b6000600019821415612c1157612c11612bcf565b5060010190565b634e487b7160e01b600052604160045260246000fd5b600060208284031215612c4057600080fd5b5051919050565b634e487b7160e01b600052601260045260246000fd5b6020808252600990820152682737ba1037bbb732b960b91b604082015260600190565b600081612c8f57612c8f612bcf565b506000190190565b634e487b7160e01b600052603160045260246000fd5b600082821015612cbf57612cbf612bcf565b500390565b6000816000190483118215151615612cde57612cde612bcf565b500290565b600082612d0057634e487b7160e01b600052601260045260246000fd5b500490565b60005b83811015612d20578181015183820152602001612d08565b8381111561153f5750506000910152565b60008251612d43818460208701612d05565b9190910192915050565b6020808252602a908201527f416d6f756e7420746f2077697468647261772069732067726561746572207468604082015269616e2062616c616e636560b01b606082015260800190565b600060208284031215612da957600080fd5b815180151581146110d257600080fd5b6020815260008251806020840152612dd8816040850160208701612d05565b601f01601f1916919091016040019291505056fea2646970667358221220957766e7dd7503eb3aa4985f5b2ee177c9781dd02392e88fde82977d5e5a1c7864736f6c63430008090033",
  "linkReferences": {},
  "deployedLinkReferences": {}
}